{
  "contractName": "ZCASUCertificate",
  "abi": [
    {
      "inputs": [],
      "stateMutability": "nonpayable",
      "type": "constructor"
    },
    {
      "anonymous": false,
      "inputs": [
        {
          "indexed": true,
          "internalType": "address",
          "name": "student",
          "type": "address"
        },
        {
          "indexed": true,
          "internalType": "address",
          "name": "institute",
          "type": "address"
        },
        {
          "indexed": false,
          "internalType": "string",
          "name": "ipfsHash",
          "type": "string"
        },
        {
          "indexed": false,
          "internalType": "uint256",
          "name": "timestamp",
          "type": "uint256"
        }
      ],
      "name": "CertificateIssued",
      "type": "event"
    },
    {
      "anonymous": false,
      "inputs": [
        {
          "indexed": true,
          "internalType": "address",
          "name": "student",
          "type": "address"
        },
        {
          "indexed": false,
          "internalType": "string",
          "name": "ipfsHash",
          "type": "string"
        }
      ],
      "name": "CertificateRevoked",
      "type": "event"
    },
    {
      "anonymous": false,
      "inputs": [
        {
          "indexed": true,
          "internalType": "address",
          "name": "student",
          "type": "address"
        },
        {
          "indexed": false,
          "internalType": "string",
          "name": "ipfsHash",
          "type": "string"
        },
        {
          "indexed": false,
          "internalType": "bool",
          "name": "isValid",
          "type": "bool"
        }
      ],
      "name": "CertificateVerified",
      "type": "event"
    },
    {
      "inputs": [],
      "name": "institute",
      "outputs": [
        {
          "internalType": "address",
          "name": "",
          "type": "address"
        }
      ],
      "stateMutability": "view",
      "type": "function",
      "constant": true
    },
    {
      "inputs": [
        {
          "internalType": "address",
          "name": "",
          "type": "address"
        },
        {
          "internalType": "uint256",
          "name": "",
          "type": "uint256"
        }
      ],
      "name": "studentCertificates",
      "outputs": [
        {
          "internalType": "string",
          "name": "ipfsHash",
          "type": "string"
        },
        {
          "internalType": "address",
          "name": "student",
          "type": "address"
        },
        {
          "internalType": "address",
          "name": "institute",
          "type": "address"
        },
        {
          "internalType": "uint256",
          "name": "timestamp",
          "type": "uint256"
        },
        {
          "internalType": "bool",
          "name": "isValid",
          "type": "bool"
        }
      ],
      "stateMutability": "view",
      "type": "function",
      "constant": true
    },
    {
      "inputs": [
        {
          "internalType": "string",
          "name": "",
          "type": "string"
        }
      ],
      "name": "usedHashes",
      "outputs": [
        {
          "internalType": "bool",
          "name": "",
          "type": "bool"
        }
      ],
      "stateMutability": "view",
      "type": "function",
      "constant": true
    },
    {
      "inputs": [
        {
          "internalType": "address",
          "name": "student",
          "type": "address"
        },
        {
          "internalType": "string",
          "name": "_ipfsHash",
          "type": "string"
        }
      ],
      "name": "issueCertificate",
      "outputs": [],
      "stateMutability": "nonpayable",
      "type": "function"
    },
    {
      "inputs": [
        {
          "internalType": "string",
          "name": "_ipfsHash",
          "type": "string"
        },
        {
          "internalType": "bool",
          "name": "_isValid",
          "type": "bool"
        }
      ],
      "name": "verifyCertificate",
      "outputs": [],
      "stateMutability": "nonpayable",
      "type": "function"
    },
    {
      "inputs": [
        {
          "internalType": "string",
          "name": "_ipfsHash",
          "type": "string"
        }
      ],
      "name": "revokeCertificate",
      "outputs": [],
      "stateMutability": "nonpayable",
      "type": "function"
    },
    {
      "inputs": [
        {
          "internalType": "address",
          "name": "_student",
          "type": "address"
        }
      ],
      "name": "getCertificates",
      "outputs": [
        {
          "components": [
            {
              "internalType": "string",
              "name": "ipfsHash",
              "type": "string"
            },
            {
              "internalType": "address",
              "name": "student",
              "type": "address"
            },
            {
              "internalType": "address",
              "name": "institute",
              "type": "address"
            },
            {
              "internalType": "uint256",
              "name": "timestamp",
              "type": "uint256"
            },
            {
              "internalType": "bool",
              "name": "isValid",
              "type": "bool"
            }
          ],
          "internalType": "struct ZCASUCertificate.Certificate[]",
          "name": "",
          "type": "tuple[]"
        }
      ],
      "stateMutability": "view",
      "type": "function",
      "constant": true
    },
    {
      "inputs": [
        {
          "internalType": "string",
          "name": "_ipfsHash",
          "type": "string"
        }
      ],
      "name": "getCertificateDetails",
      "outputs": [
        {
          "components": [
            {
              "internalType": "string",
              "name": "ipfsHash",
              "type": "string"
            },
            {
              "internalType": "address",
              "name": "student",
              "type": "address"
            },
            {
              "internalType": "address",
              "name": "institute",
              "type": "address"
            },
            {
              "internalType": "uint256",
              "name": "timestamp",
              "type": "uint256"
            },
            {
              "internalType": "bool",
              "name": "isValid",
              "type": "bool"
            }
          ],
          "internalType": "struct ZCASUCertificate.Certificate",
          "name": "",
          "type": "tuple"
        }
      ],
      "stateMutability": "view",
      "type": "function",
      "constant": true
    },
    {
      "inputs": [
        {
          "internalType": "string",
          "name": "_ipfsHash",
          "type": "string"
        },
        {
          "internalType": "address",
          "name": "_institute",
          "type": "address"
        }
      ],
      "name": "registerCertificate",
      "outputs": [],
      "stateMutability": "nonpayable",
      "type": "function"
    }
  ],
  "bytecode": "0x608060405234801561001057600080fd5b5033600360006101000a81548173ffffffffffffffffffffffffffffffffffffffff021916908373ffffffffffffffffffffffffffffffffffffffff160217905550611e4d806100616000396000f3fe608060405234801561001057600080fd5b50600436106100935760003560e01c8063bd1f5f3111610066578063bd1f5f311461010a578063c3934f0e1461013a578063c908947e1461016e578063f1c49c621461018a578063fa433b36146101ba57610093565b8063142e15421461009857806345ff9f13146100b45780638db50bae146100d0578063bb721aab146100ee575b600080fd5b6100b260048036038101906100ad91906115c7565b6101ea565b005b6100ce60048036038101906100c99190611608565b6103c3565b005b6100d8610761565b6040516100e59190611a1f565b60405180910390f35b61010860048036038101906101039190611537565b610787565b005b610124600480360381019061011f91906115c7565b610bf9565b6040516101319190611a5c565b60405180910390f35b610154600480360381019061014f919061158b565b610c2f565b604051610165959493929190611a99565b60405180910390f35b6101886004803603810190610183919061165c565b610d57565b005b6101a4600480360381019061019f919061150e565b610f32565b6040516101b19190611a3a565b60405180910390f35b6101d460048036038101906101cf91906115c7565b611132565b6040516101e19190611bb3565b60405180910390f35b600360009054906101000a900473ffffffffffffffffffffffffffffffffffffffff1673ffffffffffffffffffffffffffffffffffffffff163373ffffffffffffffffffffffffffffffffffffffff161461027a576040517f08c379a000000000000000000000000000000000000000000000000000000000815260040161027190611b93565b60405180910390fd5b600060028260405161028c9190611a08565b90815260200160405180910390209050600073ffffffffffffffffffffffffffffffffffffffff168160010160009054906101000a900473ffffffffffffffffffffffffffffffffffffffff1673ffffffffffffffffffffffffffffffffffffffff161415610330576040517f08c379a000000000000000000000000000000000000000000000000000000000815260040161032790611b73565b60405180910390fd5b60008160040160006101000a81548160ff0219169083151502179055508060010160009054906101000a900473ffffffffffffffffffffffffffffffffffffffff1673ffffffffffffffffffffffffffffffffffffffff167fea1842a7488747c3224eb14e1621c64aa824ec84dadb16e6122fa8223086d048836040516103b79190611a77565b60405180910390a25050565b6001826040516103d39190611a08565b908152602001604051809103902060009054906101000a900460ff161561042f576040517f08c379a000000000000000000000000000000000000000000000000000000000815260040161042690611b53565b60405180910390fd5b60006040518060a001604052808481526020013373ffffffffffffffffffffffffffffffffffffffff1681526020018373ffffffffffffffffffffffffffffffffffffffff1681526020014281526020016000151581525090506000803373ffffffffffffffffffffffffffffffffffffffff1673ffffffffffffffffffffffffffffffffffffffff168152602001908152602001600020819080600181540180825580915050600190039060005260206000209060050201600090919091909150600082015181600001908051906020019061050d929190611367565b5060208201518160010160006101000a81548173ffffffffffffffffffffffffffffffffffffffff021916908373ffffffffffffffffffffffffffffffffffffffff16021790555060408201518160020160006101000a81548173ffffffffffffffffffffffffffffffffffffffff021916908373ffffffffffffffffffffffffffffffffffffffff1602179055506060820151816003015560808201518160040160006101000a81548160ff0219169083151502179055505050806002846040516105d99190611a08565b90815260200160405180910390206000820151816000019080519060200190610603929190611367565b5060208201518160010160006101000a81548173ffffffffffffffffffffffffffffffffffffffff021916908373ffffffffffffffffffffffffffffffffffffffff16021790555060408201518160020160006101000a81548173ffffffffffffffffffffffffffffffffffffffff021916908373ffffffffffffffffffffffffffffffffffffffff1602179055506060820151816003015560808201518160040160006101000a81548160ff021916908315150217905550905050600180846040516106d09190611a08565b908152602001604051809103902060006101000a81548160ff0219169083151502179055508173ffffffffffffffffffffffffffffffffffffffff163373ffffffffffffffffffffffffffffffffffffffff167f0d4c8b54bb811347956d50e4e7ada18786723b008c84b0d9be92f77312c8d4a88542604051610754929190611b23565b60405180910390a3505050565b600360009054906101000a900473ffffffffffffffffffffffffffffffffffffffff1681565b600360009054906101000a900473ffffffffffffffffffffffffffffffffffffffff1673ffffffffffffffffffffffffffffffffffffffff163373ffffffffffffffffffffffffffffffffffffffff1614610817576040517f08c379a000000000000000000000000000000000000000000000000000000000815260040161080e90611b93565b60405180910390fd5b6001816040516108279190611a08565b908152602001604051809103902060009054906101000a900460ff1615610883576040517f08c379a000000000000000000000000000000000000000000000000000000000815260040161087a90611b53565b60405180910390fd5b60006040518060a001604052808381526020018473ffffffffffffffffffffffffffffffffffffffff168152602001600360009054906101000a900473ffffffffffffffffffffffffffffffffffffffff1673ffffffffffffffffffffffffffffffffffffffff1681526020014281526020016001151581525090506000808473ffffffffffffffffffffffffffffffffffffffff1673ffffffffffffffffffffffffffffffffffffffff1681526020019081526020016000208190806001815401808255809150506001900390600052602060002090600502016000909190919091506000820151816000019080519060200190610983929190611367565b5060208201518160010160006101000a81548173ffffffffffffffffffffffffffffffffffffffff021916908373ffffffffffffffffffffffffffffffffffffffff16021790555060408201518160020160006101000a81548173ffffffffffffffffffffffffffffffffffffffff021916908373ffffffffffffffffffffffffffffffffffffffff1602179055506060820151816003015560808201518160040160006101000a81548160ff021916908315150217905550505080600283604051610a4f9190611a08565b90815260200160405180910390206000820151816000019080519060200190610a79929190611367565b5060208201518160010160006101000a81548173ffffffffffffffffffffffffffffffffffffffff021916908373ffffffffffffffffffffffffffffffffffffffff16021790555060408201518160020160006101000a81548173ffffffffffffffffffffffffffffffffffffffff021916908373ffffffffffffffffffffffffffffffffffffffff1602179055506060820151816003015560808201518160040160006101000a81548160ff02191690831515021790555090505060018083604051610b469190611a08565b908152602001604051809103902060006101000a81548160ff021916908315150217905550600360009054906101000a900473ffffffffffffffffffffffffffffffffffffffff1673ffffffffffffffffffffffffffffffffffffffff168373ffffffffffffffffffffffffffffffffffffffff167f0d4c8b54bb811347956d50e4e7ada18786723b008c84b0d9be92f77312c8d4a88442604051610bec929190611b23565b60405180910390a3505050565b6001818051602081018201805184825260208301602085012081835280955050505050506000915054906101000a900460ff1681565b60006020528160005260406000208181548110610c4b57600080fd5b906000526020600020906005020160009150915050806000018054610c6f90611d31565b80601f0160208091040260200160405190810160405280929190818152602001828054610c9b90611d31565b8015610ce85780601f10610cbd57610100808354040283529160200191610ce8565b820191906000526020600020905b815481529060010190602001808311610ccb57829003601f168201915b5050505050908060010160009054906101000a900473ffffffffffffffffffffffffffffffffffffffff16908060020160009054906101000a900473ffffffffffffffffffffffffffffffffffffffff16908060030154908060040160009054906101000a900460ff16905085565b600360009054906101000a900473ffffffffffffffffffffffffffffffffffffffff1673ffffffffffffffffffffffffffffffffffffffff163373ffffffffffffffffffffffffffffffffffffffff1614610de7576040517f08c379a0000000000000000000000000000000000000000000000000000000008152600401610dde90611b93565b60405180910390fd5b6000600283604051610df99190611a08565b90815260200160405180910390209050600073ffffffffffffffffffffffffffffffffffffffff168160010160009054906101000a900473ffffffffffffffffffffffffffffffffffffffff1673ffffffffffffffffffffffffffffffffffffffff161415610e9d576040517f08c379a0000000000000000000000000000000000000000000000000000000008152600401610e9490611b73565b60405180910390fd5b818160040160006101000a81548160ff0219169083151502179055508060010160009054906101000a900473ffffffffffffffffffffffffffffffffffffffff1673ffffffffffffffffffffffffffffffffffffffff167f9109baf77fba4a31a8f4f8afd834d1465e0676bad32d2f3376892bb312730b7c8484604051610f25929190611af3565b60405180910390a2505050565b60606000808373ffffffffffffffffffffffffffffffffffffffff1673ffffffffffffffffffffffffffffffffffffffff168152602001908152602001600020805480602002602001604051908101604052809291908181526020016000905b8282101561112757838290600052602060002090600502016040518060a0016040529081600082018054610fc590611d31565b80601f0160208091040260200160405190810160405280929190818152602001828054610ff190611d31565b801561103e5780601f106110135761010080835404028352916020019161103e565b820191906000526020600020905b81548152906001019060200180831161102157829003601f168201915b505050505081526020016001820160009054906101000a900473ffffffffffffffffffffffffffffffffffffffff1673ffffffffffffffffffffffffffffffffffffffff1673ffffffffffffffffffffffffffffffffffffffff1681526020016002820160009054906101000a900473ffffffffffffffffffffffffffffffffffffffff1673ffffffffffffffffffffffffffffffffffffffff1673ffffffffffffffffffffffffffffffffffffffff168152602001600382015481526020016004820160009054906101000a900460ff16151515158152505081526020019060010190610f92565b505050509050919050565b61113a6113ed565b600060028360405161114c9190611a08565b90815260200160405180910390209050600073ffffffffffffffffffffffffffffffffffffffff168160010160009054906101000a900473ffffffffffffffffffffffffffffffffffffffff1673ffffffffffffffffffffffffffffffffffffffff1614156111f0576040517f08c379a00000000000000000000000000000000000000000000000000000000081526004016111e790611b73565b60405180910390fd5b806040518060a001604052908160008201805461120c90611d31565b80601f016020809104026020016040519081016040528092919081815260200182805461123890611d31565b80156112855780601f1061125a57610100808354040283529160200191611285565b820191906000526020600020905b81548152906001019060200180831161126857829003601f168201915b505050505081526020016001820160009054906101000a900473ffffffffffffffffffffffffffffffffffffffff1673ffffffffffffffffffffffffffffffffffffffff1673ffffffffffffffffffffffffffffffffffffffff1681526020016002820160009054906101000a900473ffffffffffffffffffffffffffffffffffffffff1673ffffffffffffffffffffffffffffffffffffffff1673ffffffffffffffffffffffffffffffffffffffff168152602001600382015481526020016004820160009054906101000a900460ff161515151581525050915050919050565b82805461137390611d31565b90600052602060002090601f01602090048101928261139557600085556113dc565b82601f106113ae57805160ff19168380011785556113dc565b828001600101855582156113dc579182015b828111156113db5782518255916020019190600101906113c0565b5b5090506113e9919061144a565b5090565b6040518060a0016040528060608152602001600073ffffffffffffffffffffffffffffffffffffffff168152602001600073ffffffffffffffffffffffffffffffffffffffff168152602001600081526020016000151581525090565b5b8082111561146357600081600090555060010161144b565b5090565b600061147a61147584611c06565b611bd5565b90508281526020810184848401111561149257600080fd5b61149d848285611cef565b509392505050565b6000813590506114b481611dd2565b92915050565b6000813590506114c981611de9565b92915050565b600082601f8301126114e057600080fd5b81356114f0848260208601611467565b91505092915050565b60008135905061150881611e00565b92915050565b60006020828403121561152057600080fd5b600061152e848285016114a5565b91505092915050565b6000806040838503121561154a57600080fd5b6000611558858286016114a5565b925050602083013567ffffffffffffffff81111561157557600080fd5b611581858286016114cf565b9150509250929050565b6000806040838503121561159e57600080fd5b60006115ac858286016114a5565b92505060206115bd858286016114f9565b9150509250929050565b6000602082840312156115d957600080fd5b600082013567ffffffffffffffff8111156115f357600080fd5b6115ff848285016114cf565b91505092915050565b6000806040838503121561161b57600080fd5b600083013567ffffffffffffffff81111561163557600080fd5b611641858286016114cf565b9250506020611652858286016114a5565b9150509250929050565b6000806040838503121561166f57600080fd5b600083013567ffffffffffffffff81111561168957600080fd5b611695858286016114cf565b92505060206116a6858286016114ba565b9150509250929050565b60006116bc83836118fe565b905092915050565b6116cd81611ca7565b82525050565b6116dc81611ca7565b82525050565b60006116ed82611c46565b6116f78185611c69565b93508360208202850161170985611c36565b8060005b85811015611745578484038952815161172685826116b0565b945061173183611c5c565b925060208a0199505060018101905061170d565b50829750879550505050505092915050565b61176081611cb9565b82525050565b61176f81611cb9565b82525050565b600061178082611c51565b61178a8185611c7a565b935061179a818560208601611cfe565b6117a381611dc1565b840191505092915050565b60006117b982611c51565b6117c38185611c8b565b93506117d3818560208601611cfe565b6117dc81611dc1565b840191505092915050565b60006117f282611c51565b6117fc8185611c9c565b935061180c818560208601611cfe565b80840191505092915050565b6000611825601f83611c8b565b91507f4365727469666963617465206861736820616c726561647920657869737473006000830152602082019050919050565b6000611865601583611c8b565b91507f4365727469666963617465206e6f7420666f756e6400000000000000000000006000830152602082019050919050565b60006118a5602983611c8b565b91507f4f6e6c792074686520696e737469747574652063616e2063616c6c207468697360008301527f2066756e6374696f6e00000000000000000000000000000000000000000000006020830152604082019050919050565b600060a083016000830151848203600086015261191b8282611775565b915050602083015161193060208601826116c4565b50604083015161194360408601826116c4565b50606083015161195660608601826119ea565b5060808301516119696080860182611757565b508091505092915050565b600060a08301600083015184820360008601526119918282611775565b91505060208301516119a660208601826116c4565b5060408301516119b960408601826116c4565b5060608301516119cc60608601826119ea565b5060808301516119df6080860182611757565b508091505092915050565b6119f381611ce5565b82525050565b611a0281611ce5565b82525050565b6000611a1482846117e7565b915081905092915050565b6000602082019050611a3460008301846116d3565b92915050565b60006020820190508181036000830152611a5481846116e2565b905092915050565b6000602082019050611a716000830184611766565b92915050565b60006020820190508181036000830152611a9181846117ae565b905092915050565b600060a0820190508181036000830152611ab381886117ae565b9050611ac260208301876116d3565b611acf60408301866116d3565b611adc60608301856119f9565b611ae96080830184611766565b9695505050505050565b60006040820190508181036000830152611b0d81856117ae565b9050611b1c6020830184611766565b9392505050565b60006040820190508181036000830152611b3d81856117ae565b9050611b4c60208301846119f9565b9392505050565b60006020820190508181036000830152611b6c81611818565b9050919050565b60006020820190508181036000830152611b8c81611858565b9050919050565b60006020820190508181036000830152611bac81611898565b9050919050565b60006020820190508181036000830152611bcd8184611974565b905092915050565b6000604051905081810181811067ffffffffffffffff82111715611bfc57611bfb611d92565b5b8060405250919050565b600067ffffffffffffffff821115611c2157611c20611d92565b5b601f19601f8301169050602081019050919050565b6000819050602082019050919050565b600081519050919050565b600081519050919050565b6000602082019050919050565b600082825260208201905092915050565b600082825260208201905092915050565b600082825260208201905092915050565b600081905092915050565b6000611cb282611cc5565b9050919050565b60008115159050919050565b600073ffffffffffffffffffffffffffffffffffffffff82169050919050565b6000819050919050565b82818337600083830152505050565b60005b83811015611d1c578082015181840152602081019050611d01565b83811115611d2b576000848401525b50505050565b60006002820490506001821680611d4957607f821691505b60208210811415611d5d57611d5c611d63565b5b50919050565b7f4e487b7100000000000000000000000000000000000000000000000000000000600052602260045260246000fd5b7f4e487b7100000000000000000000000000000000000000000000000000000000600052604160045260246000fd5b6000601f19601f8301169050919050565b611ddb81611ca7565b8114611de657600080fd5b50565b611df281611cb9565b8114611dfd57600080fd5b50565b611e0981611ce5565b8114611e1457600080fd5b5056fea26469706673582212201309a9aa9bc75e076a8f094ac920b914b3a7ed433a014bf988d921ef5e7e3c5c64736f6c63430008000033",
  "immutableReferences": {},
  "source": "// SPDX-License-Identifier: MIT\r\npragma solidity ^0.8.0;\r\n\r\ncontract ZCASUCertificate {\r\n    struct Certificate {\r\n        string ipfsHash;\r\n        address student;\r\n        address institute;\r\n        uint256 timestamp;\r\n        bool isValid;\r\n    }\r\n\r\n    mapping(address => Certificate[]) public studentCertificates; // Maps each student to their certificates\r\n    mapping(string => bool) public usedHashes; // Tracks used certificate IPFS hashes\r\n    mapping(string => Certificate) private certificatesByHash; // Maps IPFS hash to certificate details\r\n\r\n    address public institute; // Institute address is set as the deployer\r\n\r\n    event CertificateIssued(\r\n        address indexed student,\r\n        address indexed institute,\r\n        string ipfsHash,\r\n        uint256 timestamp\r\n    );\r\n\r\n    event CertificateVerified(\r\n        address indexed student,\r\n        string ipfsHash,\r\n        bool isValid\r\n    );\r\n\r\n    event CertificateRevoked(\r\n        address indexed student,\r\n        string ipfsHash\r\n    );\r\n\r\n    constructor() {\r\n        institute = msg.sender; // Set the contract deployer as the institute\r\n    }\r\n\r\n    modifier onlyInstitute() {\r\n        require(msg.sender == institute, \"Only the institute can call this function\");\r\n        _;\r\n    }\r\n\r\n    function issueCertificate(address student, string memory _ipfsHash) external onlyInstitute {\r\n        require(!usedHashes[_ipfsHash], \"Certificate hash already exists\");\r\n\r\n        Certificate memory newCertificate = Certificate({\r\n            ipfsHash: _ipfsHash,\r\n            student: student,\r\n            institute: institute,\r\n            timestamp: block.timestamp,\r\n            isValid: true\r\n        });\r\n\r\n        studentCertificates[student].push(newCertificate);\r\n        certificatesByHash[_ipfsHash] = newCertificate;\r\n        usedHashes[_ipfsHash] = true;\r\n\r\n        emit CertificateIssued(student, institute, _ipfsHash, block.timestamp);\r\n    }\r\n\r\n    // Verifies the certificate by IPFS hash and sets its validity status\r\n    function verifyCertificate(string memory _ipfsHash, bool _isValid) external onlyInstitute {\r\n        Certificate storage certificate = certificatesByHash[_ipfsHash];\r\n        require(certificate.student != address(0), \"Certificate not found\");\r\n\r\n        certificate.isValid = _isValid; // Update the validity status\r\n        emit CertificateVerified(certificate.student, _ipfsHash, _isValid); // Emit event\r\n    }\r\n\r\n    function revokeCertificate(string memory _ipfsHash) external onlyInstitute {\r\n        Certificate storage certificate = certificatesByHash[_ipfsHash];\r\n        require(certificate.student != address(0), \"Certificate not found\");\r\n\r\n        certificate.isValid = false;\r\n        emit CertificateRevoked(certificate.student, _ipfsHash);\r\n    }\r\n\r\n    function getCertificates(address _student) external view returns (Certificate[] memory) {\r\n        return studentCertificates[_student];\r\n    }\r\n\r\n    function getCertificateDetails(string memory _ipfsHash) external view returns (Certificate memory) {\r\n        Certificate storage certificate = certificatesByHash[_ipfsHash];\r\n        require(certificate.student != address(0), \"Certificate not found\");\r\n        return certificate;\r\n    }\r\n\r\n    // Registers a new certificate for a student\r\n    function registerCertificate(string memory _ipfsHash, address _institute) external {\r\n        require(!usedHashes[_ipfsHash], \"Certificate hash already exists\");\r\n\r\n        Certificate memory newCertificate = Certificate({\r\n            ipfsHash: _ipfsHash,\r\n            student: msg.sender,\r\n            institute: _institute,\r\n            timestamp: block.timestamp,\r\n            isValid: false\r\n        });\r\n\r\n        studentCertificates[msg.sender].push(newCertificate);\r\n        certificatesByHash[_ipfsHash] = newCertificate;\r\n        usedHashes[_ipfsHash] = true;\r\n\r\n        emit CertificateIssued(msg.sender, _institute, _ipfsHash, block.timestamp);\r\n    }\r\n}\r\n",
  "sourcePath": "C:\\Users\\JONES\\zcasu_certificates\\smart-contracts\\contracts\\ZCASUCertficate.sol",
  "compiler": {
    "name": "solc",
    "version": "0.8.0+commit.c7dfd78e.Emscripten.clang"
  },
  "schemaVersion": "3.4.16",
  "updatedAt": "2024-11-18T13:06:11.874Z",
  "networkType": "ethereum",
  "devdoc": {
    "kind": "dev",
    "methods": {},
    "version": 1
  },
  "userdoc": {
    "kind": "user",
    "methods": {},
    "version": 1
  }
}