{
  "contractName": "MultiSigWallet",
  "abi": [
    {
      "inputs": [
        {
          "internalType": "address",
          "name": "_student",
          "type": "address"
        },
        {
          "internalType": "address",
          "name": "_institute",
          "type": "address"
        }
      ],
      "stateMutability": "nonpayable",
      "type": "constructor"
    },
    {
      "anonymous": false,
      "inputs": [
        {
          "indexed": true,
          "internalType": "address",
          "name": "owner",
          "type": "address"
        },
        {
          "indexed": true,
          "internalType": "uint256",
          "name": "txIndex",
          "type": "uint256"
        }
      ],
      "name": "ConfirmTransaction",
      "type": "event"
    },
    {
      "anonymous": false,
      "inputs": [
        {
          "indexed": true,
          "internalType": "address",
          "name": "sender",
          "type": "address"
        },
        {
          "indexed": false,
          "internalType": "uint256",
          "name": "amount",
          "type": "uint256"
        },
        {
          "indexed": false,
          "internalType": "uint256",
          "name": "balance",
          "type": "uint256"
        }
      ],
      "name": "Deposit",
      "type": "event"
    },
    {
      "anonymous": false,
      "inputs": [
        {
          "indexed": true,
          "internalType": "address",
          "name": "owner",
          "type": "address"
        },
        {
          "indexed": true,
          "internalType": "uint256",
          "name": "txIndex",
          "type": "uint256"
        }
      ],
      "name": "ExecuteTransaction",
      "type": "event"
    },
    {
      "anonymous": false,
      "inputs": [
        {
          "indexed": true,
          "internalType": "address",
          "name": "owner",
          "type": "address"
        },
        {
          "indexed": true,
          "internalType": "uint256",
          "name": "txIndex",
          "type": "uint256"
        }
      ],
      "name": "SubmitTransaction",
      "type": "event"
    },
    {
      "inputs": [
        {
          "internalType": "uint256",
          "name": "",
          "type": "uint256"
        },
        {
          "internalType": "address",
          "name": "",
          "type": "address"
        }
      ],
      "name": "confirmations",
      "outputs": [
        {
          "internalType": "bool",
          "name": "",
          "type": "bool"
        }
      ],
      "stateMutability": "view",
      "type": "function"
    },
    {
      "inputs": [],
      "name": "institute",
      "outputs": [
        {
          "internalType": "address",
          "name": "",
          "type": "address"
        }
      ],
      "stateMutability": "view",
      "type": "function"
    },
    {
      "inputs": [],
      "name": "student",
      "outputs": [
        {
          "internalType": "address",
          "name": "",
          "type": "address"
        }
      ],
      "stateMutability": "view",
      "type": "function"
    },
    {
      "inputs": [
        {
          "internalType": "uint256",
          "name": "",
          "type": "uint256"
        }
      ],
      "name": "transactions",
      "outputs": [
        {
          "internalType": "address",
          "name": "to",
          "type": "address"
        },
        {
          "internalType": "uint256",
          "name": "value",
          "type": "uint256"
        },
        {
          "internalType": "bool",
          "name": "executed",
          "type": "bool"
        }
      ],
      "stateMutability": "view",
      "type": "function"
    },
    {
      "stateMutability": "payable",
      "type": "receive"
    },
    {
      "inputs": [
        {
          "internalType": "address",
          "name": "_to",
          "type": "address"
        },
        {
          "internalType": "uint256",
          "name": "_value",
          "type": "uint256"
        }
      ],
      "name": "submitTransaction",
      "outputs": [],
      "stateMutability": "nonpayable",
      "type": "function"
    },
    {
      "inputs": [
        {
          "internalType": "uint256",
          "name": "_txIndex",
          "type": "uint256"
        }
      ],
      "name": "confirmTransaction",
      "outputs": [],
      "stateMutability": "nonpayable",
      "type": "function"
    },
    {
      "inputs": [
        {
          "internalType": "uint256",
          "name": "_txIndex",
          "type": "uint256"
        }
      ],
      "name": "executeTransaction",
      "outputs": [],
      "stateMutability": "nonpayable",
      "type": "function"
    }
  ],
  "bytecode": "0x60806040523480156200001157600080fd5b50604051620011b9380380620011b9833981810160405281019062000037919062000149565b8073ffffffffffffffffffffffffffffffffffffffff168273ffffffffffffffffffffffffffffffffffffffff161415620000a9576040517f08c379a0000000000000000000000000000000000000000000000000000000008152600401620000a090620001f2565b60405180910390fd5b816000806101000a81548173ffffffffffffffffffffffffffffffffffffffff021916908373ffffffffffffffffffffffffffffffffffffffff16021790555080600160006101000a81548173ffffffffffffffffffffffffffffffffffffffff021916908373ffffffffffffffffffffffffffffffffffffffff160217905550505062000273565b600081519050620001438162000259565b92915050565b600080604083850312156200015d57600080fd5b60006200016d8582860162000132565b9250506020620001808582860162000132565b9150509250929050565b60006200019960288362000214565b91507f53747564656e7420616e6420696e737469747574652063616e6e6f742062652060008301527f7468652073616d650000000000000000000000000000000000000000000000006020830152604082019050919050565b600060208201905081810360008301526200020d816200018a565b9050919050565b600082825260208201905092915050565b6000620002328262000239565b9050919050565b600073ffffffffffffffffffffffffffffffffffffffff82169050919050565b620002648162000225565b81146200027057600080fd5b50565b610f3680620002836000396000f3fe6080604052600436106100745760003560e01c80638db50bae1161004e5780638db50bae146101615780639ace38c21461018c578063c01a8c84146101cb578063ee22610b146101f4576100cb565b80631d43b653146100d05780633411c81c146100f9578063699450e814610136576100cb565b366100cb573373ffffffffffffffffffffffffffffffffffffffff167f90890809c654f11d6e72a28fa60149770a0d11ec6c92319d6ceb2bb0a4ea1a1534476040516100c1929190610de2565b60405180910390a2005b600080fd5b3480156100dc57600080fd5b506100f760048036038101906100f29190610ad2565b61021d565b005b34801561010557600080fd5b50610120600480360381019061011b9190610b37565b61042e565b60405161012d9190610d47565b60405180910390f35b34801561014257600080fd5b5061014b61045d565b6040516101589190610cf5565b60405180910390f35b34801561016d57600080fd5b50610176610481565b6040516101839190610cf5565b60405180910390f35b34801561019857600080fd5b506101b360048036038101906101ae9190610b0e565b6104a7565b6040516101c293929190610d10565b60405180910390f35b3480156101d757600080fd5b506101f260048036038101906101ed9190610b0e565b61050e565b005b34801561020057600080fd5b5061021b60048036038101906102169190610b0e565b6106a4565b005b60008054906101000a900473ffffffffffffffffffffffffffffffffffffffff1673ffffffffffffffffffffffffffffffffffffffff163373ffffffffffffffffffffffffffffffffffffffff1614806102c45750600160009054906101000a900473ffffffffffffffffffffffffffffffffffffffff1673ffffffffffffffffffffffffffffffffffffffff163373ffffffffffffffffffffffffffffffffffffffff16145b610303576040517f08c379a00000000000000000000000000000000000000000000000000000000081526004016102fa90610d82565b60405180910390fd5b600260405180606001604052808473ffffffffffffffffffffffffffffffffffffffff16815260200183815260200160001515815250908060018154018082558091505060019003906000526020600020906003020160009091909190915060008201518160000160006101000a81548173ffffffffffffffffffffffffffffffffffffffff021916908373ffffffffffffffffffffffffffffffffffffffff1602179055506020820151816001015560408201518160020160006101000a81548160ff021916908315150217905550505060016002805490506103e79190610e27565b3373ffffffffffffffffffffffffffffffffffffffff167fc82555d64d2b8b25ffefc140ae6575736763ee3a99347632d7f633e7bfae3f7860405160405180910390a35050565b60036020528160005260406000206020528060005260406000206000915091509054906101000a900460ff1681565b60008054906101000a900473ffffffffffffffffffffffffffffffffffffffff1681565b600160009054906101000a900473ffffffffffffffffffffffffffffffffffffffff1681565b600281815481106104b757600080fd5b90600052602060002090600302016000915090508060000160009054906101000a900473ffffffffffffffffffffffffffffffffffffffff16908060010154908060020160009054906101000a900460ff16905083565b60008054906101000a900473ffffffffffffffffffffffffffffffffffffffff1673ffffffffffffffffffffffffffffffffffffffff163373ffffffffffffffffffffffffffffffffffffffff1614806105b55750600160009054906101000a900473ffffffffffffffffffffffffffffffffffffffff1673ffffffffffffffffffffffffffffffffffffffff163373ffffffffffffffffffffffffffffffffffffffff16145b6105f4576040517f08c379a00000000000000000000000000000000000000000000000000000000081526004016105eb90610d82565b60405180910390fd5b60016003600083815260200190815260200160002060003373ffffffffffffffffffffffffffffffffffffffff1673ffffffffffffffffffffffffffffffffffffffff16815260200190815260200160002060006101000a81548160ff021916908315150217905550803373ffffffffffffffffffffffffffffffffffffffff167f5cbe105e36805f7820e291f799d5794ff948af2a5f664e580382defb6339004160405160405180910390a350565b60008054906101000a900473ffffffffffffffffffffffffffffffffffffffff1673ffffffffffffffffffffffffffffffffffffffff163373ffffffffffffffffffffffffffffffffffffffff16148061074b5750600160009054906101000a900473ffffffffffffffffffffffffffffffffffffffff1673ffffffffffffffffffffffffffffffffffffffff163373ffffffffffffffffffffffffffffffffffffffff16145b61078a576040517f08c379a000000000000000000000000000000000000000000000000000000000815260040161078190610d82565b60405180910390fd5b6000600282815481106107c6577f4e487b7100000000000000000000000000000000000000000000000000000000600052603260045260246000fd5b906000526020600020906003020190508060020160009054906101000a900460ff1615610828576040517f08c379a000000000000000000000000000000000000000000000000000000000815260040161081f90610da2565b60405180910390fd5b6003600083815260200190815260200160002060008060009054906101000a900473ffffffffffffffffffffffffffffffffffffffff1673ffffffffffffffffffffffffffffffffffffffff1673ffffffffffffffffffffffffffffffffffffffff16815260200190815260200160002060009054906101000a900460ff16801561092f5750600360008381526020019081526020016000206000600160009054906101000a900473ffffffffffffffffffffffffffffffffffffffff1673ffffffffffffffffffffffffffffffffffffffff1673ffffffffffffffffffffffffffffffffffffffff16815260200190815260200160002060009054906101000a900460ff165b61096e576040517f08c379a000000000000000000000000000000000000000000000000000000000815260040161096590610d62565b60405180910390fd5b60018160020160006101000a81548160ff02191690831515021790555060008160000160009054906101000a900473ffffffffffffffffffffffffffffffffffffffff1673ffffffffffffffffffffffffffffffffffffffff1682600101546040516109d990610ce0565b60006040518083038185875af1925050503d8060008114610a16576040519150601f19603f3d011682016040523d82523d6000602084013e610a1b565b606091505b5050905080610a5f576040517f08c379a0000000000000000000000000000000000000000000000000000000008152600401610a5690610dc2565b60405180910390fd5b823373ffffffffffffffffffffffffffffffffffffffff167f5445f318f4f5fcfb66592e68e0cc5822aa15664039bd5f0ffde24c5a8142b1ac60405160405180910390a3505050565b600081359050610ab781610ed2565b92915050565b600081359050610acc81610ee9565b92915050565b60008060408385031215610ae557600080fd5b6000610af385828601610aa8565b9250506020610b0485828601610abd565b9150509250929050565b600060208284031215610b2057600080fd5b6000610b2e84828501610abd565b91505092915050565b60008060408385031215610b4a57600080fd5b6000610b5885828601610abd565b9250506020610b6985828601610aa8565b9150509250929050565b610b7c81610e5b565b82525050565b610b8b81610e6d565b82525050565b6000610b9e602883610e16565b91507f5472616e73616374696f6e206e6f7420636f6e6669726d656420627920626f7460008301527f68206f776e6572730000000000000000000000000000000000000000000000006020830152604082019050919050565b6000610c04600c83610e16565b91507f4e6f7420616e206f776e657200000000000000000000000000000000000000006000830152602082019050919050565b6000610c44601c83610e16565b91507f5472616e73616374696f6e20616c7265616479206578656375746564000000006000830152602082019050919050565b6000610c84601283610e16565b91507f5472616e73616374696f6e206661696c656400000000000000000000000000006000830152602082019050919050565b6000610cc4600083610e0b565b9150600082019050919050565b610cda81610e99565b82525050565b6000610ceb82610cb7565b9150819050919050565b6000602082019050610d0a6000830184610b73565b92915050565b6000606082019050610d256000830186610b73565b610d326020830185610cd1565b610d3f6040830184610b82565b949350505050565b6000602082019050610d5c6000830184610b82565b92915050565b60006020820190508181036000830152610d7b81610b91565b9050919050565b60006020820190508181036000830152610d9b81610bf7565b9050919050565b60006020820190508181036000830152610dbb81610c37565b9050919050565b60006020820190508181036000830152610ddb81610c77565b9050919050565b6000604082019050610df76000830185610cd1565b610e046020830184610cd1565b9392505050565b600081905092915050565b600082825260208201905092915050565b6000610e3282610e99565b9150610e3d83610e99565b925082821015610e5057610e4f610ea3565b5b828203905092915050565b6000610e6682610e79565b9050919050565b60008115159050919050565b600073ffffffffffffffffffffffffffffffffffffffff82169050919050565b6000819050919050565b7f4e487b7100000000000000000000000000000000000000000000000000000000600052601160045260246000fd5b610edb81610e5b565b8114610ee657600080fd5b50565b610ef281610e99565b8114610efd57600080fd5b5056fea264697066735822122022025c2b1fa14fec629f74e89e720319f5c2afa2f3cd19148d1a4669a20aa26c64736f6c63430008000033",
  "immutableReferences": {},
  "source": "// SPDX-License-Identifier: MIT\r\npragma solidity ^0.8.0;\r\n\r\ncontract MultiSigWallet {\r\n    address public student;\r\n    address public institute;\r\n\r\n    event Deposit(address indexed sender, uint amount, uint balance);\r\n    event SubmitTransaction(address indexed owner, uint indexed txIndex);\r\n    event ConfirmTransaction(address indexed owner, uint indexed txIndex);\r\n    event ExecuteTransaction(address indexed owner, uint indexed txIndex);\r\n\r\n    struct Transaction {\r\n        address to;\r\n        uint value;\r\n        bool executed;\r\n    }\r\n\r\n    Transaction[] public transactions;\r\n    mapping(uint => mapping(address => bool)) public confirmations;\r\n\r\n    modifier onlyOwner() {\r\n        require(msg.sender == student || msg.sender == institute, \"Not an owner\");\r\n        _;\r\n    }\r\n\r\n    constructor(address _student, address _institute) {\r\n        require(_student != _institute, \"Student and institute cannot be the same\");\r\n        student = _student;\r\n        institute = _institute;\r\n    }\r\n\r\n    function submitTransaction(address _to, uint _value) external onlyOwner {\r\n        transactions.push(Transaction({\r\n            to: _to,\r\n            value: _value,\r\n            executed: false\r\n        }));\r\n        emit SubmitTransaction(msg.sender, transactions.length - 1);\r\n    }\r\n\r\n    function confirmTransaction(uint _txIndex) external onlyOwner {\r\n        confirmations[_txIndex][msg.sender] = true;\r\n        emit ConfirmTransaction(msg.sender, _txIndex);\r\n    }\r\n\r\n    function executeTransaction(uint _txIndex) external onlyOwner {\r\n        Transaction storage transaction = transactions[_txIndex];\r\n        require(!transaction.executed, \"Transaction already executed\");\r\n        require(confirmations[_txIndex][student] && confirmations[_txIndex][institute], \"Transaction not confirmed by both owners\");\r\n\r\n        transaction.executed = true;\r\n        (bool success, ) = transaction.to.call{value: transaction.value}(\"\");\r\n        require(success, \"Transaction failed\");\r\n        emit ExecuteTransaction(msg.sender, _txIndex);\r\n    }\r\n\r\n    receive() external payable {\r\n        emit Deposit(msg.sender, msg.value, address(this).balance);\r\n    }\r\n}\r\n",
  "sourcePath": "C:\\Users\\JONES\\zcasu_certificates\\smart-contracts\\contracts\\MultiSigWallet.sol",
  "compiler": {
    "name": "solc",
    "version": "0.8.0+commit.c7dfd78e.Emscripten.clang"
  },
  "schemaVersion": "3.4.16",
  "updatedAt": "2024-10-20T07:38:53.375Z",
  "devdoc": {
    "kind": "dev",
    "methods": {},
    "version": 1
  },
  "userdoc": {
    "kind": "user",
    "methods": {},
    "version": 1
  }
}