{
  "contractName": "StudentProfile",
  "abi": [
    {
      "anonymous": false,
      "inputs": [
        {
          "indexed": true,
          "internalType": "address",
          "name": "studentAddress",
          "type": "address"
        },
        {
          "indexed": false,
          "internalType": "string",
          "name": "name",
          "type": "string"
        },
        {
          "indexed": false,
          "internalType": "string",
          "name": "email",
          "type": "string"
        },
        {
          "indexed": false,
          "internalType": "string",
          "name": "studentNumber",
          "type": "string"
        },
        {
          "indexed": false,
          "internalType": "string",
          "name": "profilePicHash",
          "type": "string"
        }
      ],
      "name": "ProfileCreated",
      "type": "event"
    },
    {
      "anonymous": false,
      "inputs": [
        {
          "indexed": true,
          "internalType": "address",
          "name": "studentAddress",
          "type": "address"
        },
        {
          "indexed": false,
          "internalType": "string",
          "name": "name",
          "type": "string"
        },
        {
          "indexed": false,
          "internalType": "string",
          "name": "email",
          "type": "string"
        },
        {
          "indexed": false,
          "internalType": "string",
          "name": "studentNumber",
          "type": "string"
        },
        {
          "indexed": false,
          "internalType": "string",
          "name": "profilePicHash",
          "type": "string"
        }
      ],
      "name": "ProfileUpdated",
      "type": "event"
    },
    {
      "inputs": [
        {
          "internalType": "string",
          "name": "_name",
          "type": "string"
        },
        {
          "internalType": "string",
          "name": "_email",
          "type": "string"
        },
        {
          "internalType": "string",
          "name": "_studentNumber",
          "type": "string"
        },
        {
          "internalType": "string",
          "name": "_profilePicHash",
          "type": "string"
        }
      ],
      "name": "createProfile",
      "outputs": [],
      "stateMutability": "nonpayable",
      "type": "function"
    },
    {
      "inputs": [
        {
          "internalType": "string",
          "name": "_name",
          "type": "string"
        },
        {
          "internalType": "string",
          "name": "_email",
          "type": "string"
        },
        {
          "internalType": "string",
          "name": "_studentNumber",
          "type": "string"
        },
        {
          "internalType": "string",
          "name": "_profilePicHash",
          "type": "string"
        }
      ],
      "name": "updateProfile",
      "outputs": [],
      "stateMutability": "nonpayable",
      "type": "function"
    },
    {
      "inputs": [],
      "name": "getProfile",
      "outputs": [
        {
          "internalType": "string",
          "name": "",
          "type": "string"
        },
        {
          "internalType": "string",
          "name": "",
          "type": "string"
        },
        {
          "internalType": "string",
          "name": "",
          "type": "string"
        },
        {
          "internalType": "string",
          "name": "",
          "type": "string"
        }
      ],
      "stateMutability": "view",
      "type": "function"
    }
  ],
  "bytecode": "0x608060405234801561001057600080fd5b50610b9b806100206000396000f3fe608060405234801561001057600080fd5b50600436106100415760003560e01c80639483f25c14610046578063b0c0647f14610062578063d6afc9b11461007e575b600080fd5b610060600480360381019061005b91906107e8565b61009f565b005b61007c600480360381019061007791906107e8565b61025f565b005b61008661041f565b6040516100969493929190610964565b60405180910390f35b60008060003373ffffffffffffffffffffffffffffffffffffffff1673ffffffffffffffffffffffffffffffffffffffff16815260200190815260200160002060010180546100ed90610ac4565b90501161012f576040517f08c379a0000000000000000000000000000000000000000000000000000000008152600401610126906109c5565b60405180910390fd5b6040518060800160405280858152602001848152602001838152602001828152506000803373ffffffffffffffffffffffffffffffffffffffff1673ffffffffffffffffffffffffffffffffffffffff16815260200190815260200160002060008201518160000190805190602001906101aa9291906106dd565b5060208201518160010190805190602001906101c79291906106dd565b5060408201518160020190805190602001906101e49291906106dd565b5060608201518160030190805190602001906102019291906106dd565b509050503373ffffffffffffffffffffffffffffffffffffffff167f1ab52df718854fc9a4025ccc5adf0aa8b05032d527c032eed3a01390a8938d0e858585856040516102519493929190610964565b60405180910390a250505050565b60008060003373ffffffffffffffffffffffffffffffffffffffff1673ffffffffffffffffffffffffffffffffffffffff16815260200190815260200160002060010180546102ad90610ac4565b9050146102ef576040517f08c379a00000000000000000000000000000000000000000000000000000000081526004016102e6906109e5565b60405180910390fd5b6040518060800160405280858152602001848152602001838152602001828152506000803373ffffffffffffffffffffffffffffffffffffffff1673ffffffffffffffffffffffffffffffffffffffff168152602001908152602001600020600082015181600001908051906020019061036a9291906106dd565b5060208201518160010190805190602001906103879291906106dd565b5060408201518160020190805190602001906103a49291906106dd565b5060608201518160030190805190602001906103c19291906106dd565b509050503373ffffffffffffffffffffffffffffffffffffffff167f6500691cfa7cfc48ea0921479d4c46cb566815e4580310fe3c88b45351ee7ab0858585856040516104119493929190610964565b60405180910390a250505050565b60608060608060008060003373ffffffffffffffffffffffffffffffffffffffff1673ffffffffffffffffffffffffffffffffffffffff16815260200190815260200160002060405180608001604052908160008201805461048090610ac4565b80601f01602080910402602001604051908101604052809291908181526020018280546104ac90610ac4565b80156104f95780601f106104ce576101008083540402835291602001916104f9565b820191906000526020600020905b8154815290600101906020018083116104dc57829003601f168201915b5050505050815260200160018201805461051290610ac4565b80601f016020809104026020016040519081016040528092919081815260200182805461053e90610ac4565b801561058b5780601f106105605761010080835404028352916020019161058b565b820191906000526020600020905b81548152906001019060200180831161056e57829003601f168201915b505050505081526020016002820180546105a490610ac4565b80601f01602080910402602001604051908101604052809291908181526020018280546105d090610ac4565b801561061d5780601f106105f25761010080835404028352916020019161061d565b820191906000526020600020905b81548152906001019060200180831161060057829003601f168201915b5050505050815260200160038201805461063690610ac4565b80601f016020809104026020016040519081016040528092919081815260200182805461066290610ac4565b80156106af5780601f10610684576101008083540402835291602001916106af565b820191906000526020600020905b81548152906001019060200180831161069257829003601f168201915b5050505050815250509050806000015181602001518260400151836060015194509450945094505090919293565b8280546106e990610ac4565b90600052602060002090601f01602090048101928261070b5760008555610752565b82601f1061072457805160ff1916838001178555610752565b82800160010185558215610752579182015b82811115610751578251825591602001919060010190610736565b5b50905061075f9190610763565b5090565b5b8082111561077c576000816000905550600101610764565b5090565b600061079361078e84610a36565b610a05565b9050828152602081018484840111156107ab57600080fd5b6107b6848285610a82565b509392505050565b600082601f8301126107cf57600080fd5b81356107df848260208601610780565b91505092915050565b600080600080608085870312156107fe57600080fd5b600085013567ffffffffffffffff81111561081857600080fd5b610824878288016107be565b945050602085013567ffffffffffffffff81111561084157600080fd5b61084d878288016107be565b935050604085013567ffffffffffffffff81111561086a57600080fd5b610876878288016107be565b925050606085013567ffffffffffffffff81111561089357600080fd5b61089f878288016107be565b91505092959194509250565b60006108b682610a66565b6108c08185610a71565b93506108d0818560208601610a91565b6108d981610b54565b840191505092915050565b60006108f1601683610a71565b91507f50726f66696c6520646f6573206e6f74206578697374000000000000000000006000830152602082019050919050565b6000610931601683610a71565b91507f50726f66696c6520616c726561647920657869737473000000000000000000006000830152602082019050919050565b6000608082019050818103600083015261097e81876108ab565b9050818103602083015261099281866108ab565b905081810360408301526109a681856108ab565b905081810360608301526109ba81846108ab565b905095945050505050565b600060208201905081810360008301526109de816108e4565b9050919050565b600060208201905081810360008301526109fe81610924565b9050919050565b6000604051905081810181811067ffffffffffffffff82111715610a2c57610a2b610b25565b5b8060405250919050565b600067ffffffffffffffff821115610a5157610a50610b25565b5b601f19601f8301169050602081019050919050565b600081519050919050565b600082825260208201905092915050565b82818337600083830152505050565b60005b83811015610aaf578082015181840152602081019050610a94565b83811115610abe576000848401525b50505050565b60006002820490506001821680610adc57607f821691505b60208210811415610af057610aef610af6565b5b50919050565b7f4e487b7100000000000000000000000000000000000000000000000000000000600052602260045260246000fd5b7f4e487b7100000000000000000000000000000000000000000000000000000000600052604160045260246000fd5b6000601f19601f830116905091905056fea2646970667358221220380e68a58d27779fd2c4aaf3abed09d3c64562a138d5215efb5e1aee2556b0b464736f6c63430008000033",
  "immutableReferences": {},
  "source": "// SPDX-License-Identifier: MIT\r\npragma solidity ^0.8.0;\r\n\r\ncontract StudentProfile {\r\n    // Struct to hold student profile data\r\n    struct Profile {\r\n        string name;\r\n        string email;\r\n        string studentNumber;\r\n        string profilePicHash; // IPFS hash of the profile picture\r\n    }\r\n\r\n    // Mapping of Ethereum address to Profile\r\n    mapping(address => Profile) private profiles;\r\n\r\n    // Event to emit when a new profile is created\r\n    event ProfileCreated(address indexed studentAddress, string name, string email, string studentNumber, string profilePicHash);\r\n\r\n    // Event to emit when a profile is updated\r\n    event ProfileUpdated(address indexed studentAddress, string name, string email, string studentNumber, string profilePicHash);\r\n\r\n    // Modifier to check if the caller has a profile\r\n    modifier onlyIfProfileExists() {\r\n        require(bytes(profiles[msg.sender].email).length > 0, \"Profile does not exist\");\r\n        _;\r\n    }\r\n\r\n    // Function to create a new profile\r\n    function createProfile(string memory _name, string memory _email, string memory _studentNumber, string memory _profilePicHash) public {\r\n        require(bytes(profiles[msg.sender].email).length == 0, \"Profile already exists\");\r\n        profiles[msg.sender] = Profile(_name, _email, _studentNumber, _profilePicHash);\r\n        emit ProfileCreated(msg.sender, _name, _email, _studentNumber, _profilePicHash);\r\n    }\r\n\r\n    // Function to update an existing profile\r\n    function updateProfile(string memory _name, string memory _email, string memory _studentNumber, string memory _profilePicHash) public onlyIfProfileExists {\r\n        profiles[msg.sender] = Profile(_name, _email, _studentNumber, _profilePicHash);\r\n        emit ProfileUpdated(msg.sender, _name, _email, _studentNumber, _profilePicHash);\r\n    }\r\n\r\n    // Function to get the profile of the caller\r\n    function getProfile() public view returns (string memory, string memory, string memory, string memory) {\r\n        Profile memory profile = profiles[msg.sender];\r\n        return (profile.name, profile.email, profile.studentNumber, profile.profilePicHash);\r\n    }\r\n}\r\n",
  "sourcePath": "C:\\Users\\JONES\\zcasu_certificates\\smart-contracts\\contracts\\StudentProfile.sol",
  "compiler": {
    "name": "solc",
    "version": "0.8.0+commit.c7dfd78e.Emscripten.clang"
  },
  "schemaVersion": "3.4.16",
  "updatedAt": "2024-10-20T07:38:53.381Z",
  "devdoc": {
    "kind": "dev",
    "methods": {},
    "version": 1
  },
  "userdoc": {
    "kind": "user",
    "methods": {},
    "version": 1
  }
}