{
  "contractName": "ZCASUCertificate",
  "abi": [
    {
      "inputs": [],
      "stateMutability": "nonpayable",
      "type": "constructor"
    },
    {
      "anonymous": false,
      "inputs": [
        {
          "indexed": true,
          "internalType": "address",
          "name": "student",
          "type": "address"
        },
        {
          "indexed": true,
          "internalType": "bytes32",
          "name": "certId",
          "type": "bytes32"
        }
      ],
      "name": "CertificateIssued",
      "type": "event"
    },
    {
      "anonymous": false,
      "inputs": [
        {
          "indexed": true,
          "internalType": "bytes32",
          "name": "certId",
          "type": "bytes32"
        },
        {
          "indexed": false,
          "internalType": "bool",
          "name": "verified",
          "type": "bool"
        }
      ],
      "name": "CertificateVerified",
      "type": "event"
    },
    {
      "inputs": [
        {
          "internalType": "bytes32",
          "name": "",
          "type": "bytes32"
        }
      ],
      "name": "certificates",
      "outputs": [
        {
          "internalType": "address",
          "name": "student",
          "type": "address"
        },
        {
          "internalType": "string",
          "name": "ipfsHash",
          "type": "string"
        },
        {
          "internalType": "bool",
          "name": "verified",
          "type": "bool"
        }
      ],
      "stateMutability": "view",
      "type": "function"
    },
    {
      "inputs": [],
      "name": "institute",
      "outputs": [
        {
          "internalType": "address",
          "name": "",
          "type": "address"
        }
      ],
      "stateMutability": "view",
      "type": "function"
    },
    {
      "inputs": [
        {
          "internalType": "address",
          "name": "",
          "type": "address"
        }
      ],
      "name": "pendingApprovals",
      "outputs": [
        {
          "internalType": "bool",
          "name": "",
          "type": "bool"
        }
      ],
      "stateMutability": "view",
      "type": "function"
    },
    {
      "inputs": [
        {
          "internalType": "address",
          "name": "",
          "type": "address"
        }
      ],
      "name": "students",
      "outputs": [
        {
          "internalType": "bool",
          "name": "",
          "type": "bool"
        }
      ],
      "stateMutability": "view",
      "type": "function"
    },
    {
      "inputs": [
        {
          "internalType": "address",
          "name": "student",
          "type": "address"
        }
      ],
      "name": "addStudent",
      "outputs": [],
      "stateMutability": "nonpayable",
      "type": "function"
    },
    {
      "inputs": [
        {
          "internalType": "address",
          "name": "student",
          "type": "address"
        },
        {
          "internalType": "string",
          "name": "ipfsHash",
          "type": "string"
        }
      ],
      "name": "issueCertificate",
      "outputs": [],
      "stateMutability": "nonpayable",
      "type": "function"
    },
    {
      "inputs": [
        {
          "internalType": "bytes32",
          "name": "certId",
          "type": "bytes32"
        }
      ],
      "name": "verifyCertificate",
      "outputs": [],
      "stateMutability": "nonpayable",
      "type": "function"
    },
    {
      "inputs": [
        {
          "internalType": "address",
          "name": "student",
          "type": "address"
        }
      ],
      "name": "requestApproval",
      "outputs": [],
      "stateMutability": "nonpayable",
      "type": "function"
    },
    {
      "inputs": [
        {
          "internalType": "address",
          "name": "student",
          "type": "address"
        }
      ],
      "name": "approveStudent",
      "outputs": [],
      "stateMutability": "nonpayable",
      "type": "function"
    }
  ],
  "bytecode": "0x608060405234801561001057600080fd5b50336000806101000a81548173ffffffffffffffffffffffffffffffffffffffff021916908373ffffffffffffffffffffffffffffffffffffffff160217905550611329806100606000396000f3fe608060405234801561001057600080fd5b50600436106100935760003560e01c80638db50bae116100665780638db50bae14610132578063a6c807a914610150578063bb721aab14610180578063bd06ea191461019c578063e10bc834146101b857610093565b80631243048214610098578063137d0f8a146100c8578063742f0688146100e4578063850c176814610116575b600080fd5b6100b260048036038101906100ad9190610c12565b6101d4565b6040516100bf9190610ff2565b60405180910390f35b6100e260048036038101906100dd9190610c12565b6101f4565b005b6100fe60048036038101906100f99190610c8f565b610369565b60405161010d93929190610fb4565b60405180910390f35b610130600480360381019061012b9190610c8f565b610448565b005b61013a6105db565b6040516101479190610f99565b60405180910390f35b61016a60048036038101906101659190610c12565b6105ff565b6040516101779190610ff2565b60405180910390f35b61019a60048036038101906101959190610c3b565b61061f565b005b6101b660048036038101906101b19190610c12565b61087f565b005b6101d260048036038101906101cd9190610c12565b6109f4565b005b60036020528060005260406000206000915054906101000a900460ff1681565b60008054906101000a900473ffffffffffffffffffffffffffffffffffffffff1673ffffffffffffffffffffffffffffffffffffffff163373ffffffffffffffffffffffffffffffffffffffff1614610282576040517f08c379a00000000000000000000000000000000000000000000000000000000081526004016102799061108d565b60405180910390fd5b600360008273ffffffffffffffffffffffffffffffffffffffff1673ffffffffffffffffffffffffffffffffffffffff16815260200190815260200160002060009054906101000a900460ff1661030e576040517f08c379a00000000000000000000000000000000000000000000000000000000081526004016103059061102d565b60405180910390fd5b6000600360008373ffffffffffffffffffffffffffffffffffffffff1673ffffffffffffffffffffffffffffffffffffffff16815260200190815260200160002060006101000a81548160ff02191690831515021790555050565b60026020528060005260406000206000915090508060000160009054906101000a900473ffffffffffffffffffffffffffffffffffffffff16908060010180546103b2906111e9565b80601f01602080910402602001604051908101604052809291908181526020018280546103de906111e9565b801561042b5780601f106104005761010080835404028352916020019161042b565b820191906000526020600020905b81548152906001019060200180831161040e57829003601f168201915b5050505050908060020160009054906101000a900460ff16905083565b60008054906101000a900473ffffffffffffffffffffffffffffffffffffffff1673ffffffffffffffffffffffffffffffffffffffff163373ffffffffffffffffffffffffffffffffffffffff16146104d6576040517f08c379a00000000000000000000000000000000000000000000000000000000081526004016104cd9061108d565b60405180910390fd5b6000600260008381526020019081526020016000209050600073ffffffffffffffffffffffffffffffffffffffff168160000160009054906101000a900473ffffffffffffffffffffffffffffffffffffffff1673ffffffffffffffffffffffffffffffffffffffff161415610581576040517f08c379a00000000000000000000000000000000000000000000000000000000081526004016105789061104d565b60405180910390fd5b60018160020160006101000a81548160ff021916908315150217905550817ff90e61a4c773bad66132c1a585d03b6928d79554859ca2957702a47f031863bc60016040516105cf9190610ff2565b60405180910390a25050565b60008054906101000a900473ffffffffffffffffffffffffffffffffffffffff1681565b60016020528060005260406000206000915054906101000a900460ff1681565b60008054906101000a900473ffffffffffffffffffffffffffffffffffffffff1673ffffffffffffffffffffffffffffffffffffffff163373ffffffffffffffffffffffffffffffffffffffff16146106ad576040517f08c379a00000000000000000000000000000000000000000000000000000000081526004016106a49061108d565b60405180910390fd5b600160008373ffffffffffffffffffffffffffffffffffffffff1673ffffffffffffffffffffffffffffffffffffffff16815260200190815260200160002060009054906101000a900460ff16610739576040517f08c379a00000000000000000000000000000000000000000000000000000000081526004016107309061100d565b60405180910390fd5b600082824260405160200161075093929190610f60565b60405160208183030381529060405280519060200120905060405180606001604052808473ffffffffffffffffffffffffffffffffffffffff168152602001838152602001600015158152506002600083815260200190815260200160002060008201518160000160006101000a81548173ffffffffffffffffffffffffffffffffffffffff021916908373ffffffffffffffffffffffffffffffffffffffff1602179055506020820151816001019080519060200190610812929190610add565b5060408201518160020160006101000a81548160ff021916908315150217905550905050808373ffffffffffffffffffffffffffffffffffffffff167f18d583ccb15ddd89232eb4967084260a5d7f1ed6cc710d20c23b7513ae4b052760405160405180910390a3505050565b60008054906101000a900473ffffffffffffffffffffffffffffffffffffffff1673ffffffffffffffffffffffffffffffffffffffff163373ffffffffffffffffffffffffffffffffffffffff161461090d576040517f08c379a00000000000000000000000000000000000000000000000000000000081526004016109049061108d565b60405180910390fd5b600160008273ffffffffffffffffffffffffffffffffffffffff1673ffffffffffffffffffffffffffffffffffffffff16815260200190815260200160002060009054906101000a900460ff161561099a576040517f08c379a00000000000000000000000000000000000000000000000000000000081526004016109919061106d565b60405180910390fd5b60018060008373ffffffffffffffffffffffffffffffffffffffff1673ffffffffffffffffffffffffffffffffffffffff16815260200190815260200160002060006101000a81548160ff02191690831515021790555050565b80600160008273ffffffffffffffffffffffffffffffffffffffff1673ffffffffffffffffffffffffffffffffffffffff16815260200190815260200160002060009054906101000a900460ff16610a81576040517f08c379a0000000000000000000000000000000000000000000000000000000008152600401610a78906110ad565b60405180910390fd5b6001600360008473ffffffffffffffffffffffffffffffffffffffff1673ffffffffffffffffffffffffffffffffffffffff16815260200190815260200160002060006101000a81548160ff0219169083151502179055505050565b828054610ae9906111e9565b90600052602060002090601f016020900481019282610b0b5760008555610b52565b82601f10610b2457805160ff1916838001178555610b52565b82800160010185558215610b52579182015b82811115610b51578251825591602001919060010190610b36565b5b509050610b5f9190610b63565b5090565b5b80821115610b7c576000816000905550600101610b64565b5090565b6000610b93610b8e846110fe565b6110cd565b905082815260208101848484011115610bab57600080fd5b610bb68482856111a7565b509392505050565b600081359050610bcd816112c5565b92915050565b600081359050610be2816112dc565b92915050565b600082601f830112610bf957600080fd5b8135610c09848260208601610b80565b91505092915050565b600060208284031215610c2457600080fd5b6000610c3284828501610bbe565b91505092915050565b60008060408385031215610c4e57600080fd5b6000610c5c85828601610bbe565b925050602083013567ffffffffffffffff811115610c7957600080fd5b610c8585828601610be8565b9150509250929050565b600060208284031215610ca157600080fd5b6000610caf84828501610bd3565b91505092915050565b610cc181611155565b82525050565b610cd8610cd382611155565b61121b565b82525050565b610ce781611167565b82525050565b6000610cf88261112e565b610d028185611139565b9350610d128185602086016111b6565b610d1b816112a7565b840191505092915050565b6000610d318261112e565b610d3b818561114a565b9350610d4b8185602086016111b6565b80840191505092915050565b6000610d64601983611139565b91507f53747564656e74206973206e6f742072656769737465726564000000000000006000830152602082019050919050565b6000610da4602483611139565b91507f4e6f2070656e64696e6720617070726f76616c20666f7220746869732073747560008301527f64656e74000000000000000000000000000000000000000000000000000000006020830152604082019050919050565b6000610e0a601a83611139565b91507f436572746966696361746520646f6573206e6f742065786973740000000000006000830152602082019050919050565b6000610e4a601a83611139565b91507f53747564656e7420616c726561647920726567697374657265640000000000006000830152602082019050919050565b6000610e8a602a83611139565b91507f4f6e6c792074686520696e737469747574652063616e20706572666f726d207460008301527f68697320616374696f6e000000000000000000000000000000000000000000006020830152604082019050919050565b6000610ef0603083611139565b91507f4f6e6c7920726567697374657265642073747564656e74732063616e2070657260008301527f666f726d207468697320616374696f6e000000000000000000000000000000006020830152604082019050919050565b610f5a610f558261119d565b61123f565b82525050565b6000610f6c8286610cc7565b601482019150610f7c8285610d26565b9150610f888284610f49565b602082019150819050949350505050565b6000602082019050610fae6000830184610cb8565b92915050565b6000606082019050610fc96000830186610cb8565b8181036020830152610fdb8185610ced565b9050610fea6040830184610cde565b949350505050565b60006020820190506110076000830184610cde565b92915050565b6000602082019050818103600083015261102681610d57565b9050919050565b6000602082019050818103600083015261104681610d97565b9050919050565b6000602082019050818103600083015261106681610dfd565b9050919050565b6000602082019050818103600083015261108681610e3d565b9050919050565b600060208201905081810360008301526110a681610e7d565b9050919050565b600060208201905081810360008301526110c681610ee3565b9050919050565b6000604051905081810181811067ffffffffffffffff821117156110f4576110f3611278565b5b8060405250919050565b600067ffffffffffffffff82111561111957611118611278565b5b601f19601f8301169050602081019050919050565b600081519050919050565b600082825260208201905092915050565b600081905092915050565b60006111608261117d565b9050919050565b60008115159050919050565b6000819050919050565b600073ffffffffffffffffffffffffffffffffffffffff82169050919050565b6000819050919050565b82818337600083830152505050565b60005b838110156111d45780820151818401526020810190506111b9565b838111156111e3576000848401525b50505050565b6000600282049050600182168061120157607f821691505b6020821081141561121557611214611249565b5b50919050565b60006112268261122d565b9050919050565b6000611238826112b8565b9050919050565b6000819050919050565b7f4e487b7100000000000000000000000000000000000000000000000000000000600052602260045260246000fd5b7f4e487b7100000000000000000000000000000000000000000000000000000000600052604160045260246000fd5b6000601f19601f8301169050919050565b60008160601b9050919050565b6112ce81611155565b81146112d957600080fd5b50565b6112e581611173565b81146112f057600080fd5b5056fea2646970667358221220c0c8e7ad4a0364e165450b6cdeef61a00933de0eec6f9a4f52b9208de256bc3c64736f6c63430008000033",
  "immutableReferences": {},
  "source": "// SPDX-License-Identifier: MIT\r\npragma solidity ^0.8.0;\r\n\r\ncontract ZCASUCertificate {\r\n    address public institute;  // Only one institute: ZCASU University\r\n    mapping(address => bool) public students;\r\n    mapping(bytes32 => Certificate) public certificates;\r\n    mapping(address => bool) public pendingApprovals;\r\n\r\n    struct Certificate {\r\n        address student;\r\n        string ipfsHash;\r\n        bool verified;\r\n    }\r\n\r\n    event CertificateIssued(address indexed student, bytes32 indexed certId);\r\n    event CertificateVerified(bytes32 indexed certId, bool verified);\r\n\r\n    constructor() {\r\n        institute = msg.sender;  // ZCASU University is the owner\r\n    }\r\n\r\n    modifier onlyInstitute() {\r\n        require(msg.sender == institute, \"Only the institute can perform this action\");\r\n        _;\r\n    }\r\n\r\n    modifier onlyStudent(address _student) {\r\n        require(students[_student], \"Only registered students can perform this action\");\r\n        _;\r\n    }\r\n\r\n    function addStudent(address student) external onlyInstitute {\r\n        require(!students[student], \"Student already registered\");\r\n        students[student] = true;\r\n    }\r\n\r\n    function issueCertificate(address student, string memory ipfsHash) external onlyInstitute {\r\n        require(students[student], \"Student is not registered\");\r\n        bytes32 certId = keccak256(abi.encodePacked(student, ipfsHash, block.timestamp));\r\n        certificates[certId] = Certificate(student, ipfsHash, false);\r\n        emit CertificateIssued(student, certId);\r\n    }\r\n\r\n    function verifyCertificate(bytes32 certId) external onlyInstitute {\r\n        Certificate storage cert = certificates[certId];\r\n        require(cert.student != address(0), \"Certificate does not exist\");\r\n        cert.verified = true;\r\n        emit CertificateVerified(certId, true);\r\n    }\r\n\r\n    function requestApproval(address student) external onlyStudent(student) {\r\n        pendingApprovals[student] = true;\r\n    }\r\n\r\n    function approveStudent(address student) external onlyInstitute {\r\n        require(pendingApprovals[student], \"No pending approval for this student\");\r\n        pendingApprovals[student] = false;\r\n    }\r\n}\r\n",
  "sourcePath": "C:\\Users\\JONES\\zcasu_certificates\\smart-contracts\\contracts\\ZCASUCertficate.sol",
  "compiler": {
    "name": "solc",
    "version": "0.8.0+commit.c7dfd78e.Emscripten.clang"
  },
  "schemaVersion": "3.4.16",
  "updatedAt": "2024-10-20T07:38:53.391Z",
  "devdoc": {
    "kind": "dev",
    "methods": {},
    "version": 1
  },
  "userdoc": {
    "kind": "user",
    "methods": {},
    "version": 1
  }
}